{
  "contractName": "GameFarm",
  "abi": [
    {
      "inputs": [],
      "stateMutability": "nonpayable",
      "type": "constructor"
    },
    {
      "anonymous": false,
      "inputs": [
        {
          "indexed": true,
          "internalType": "address",
          "name": "previousOwner",
          "type": "address"
        },
        {
          "indexed": true,
          "internalType": "address",
          "name": "newOwner",
          "type": "address"
        }
      ],
      "name": "OwnershipTransferred",
      "type": "event"
    },
    {
      "stateMutability": "payable",
      "type": "fallback",
      "payable": true
    },
    {
      "inputs": [
        {
          "internalType": "uint256",
          "name": "",
          "type": "uint256"
        }
      ],
      "name": "farmRates",
      "outputs": [
        {
          "internalType": "uint256",
          "name": "id",
          "type": "uint256"
        },
        {
          "internalType": "address",
          "name": "owner",
          "type": "address"
        },
        {
          "internalType": "uint256",
          "name": "price",
          "type": "uint256"
        },
        {
          "internalType": "uint256",
          "name": "payout",
          "type": "uint256"
        },
        {
          "internalType": "uint256",
          "name": "blockCount",
          "type": "uint256"
        }
      ],
      "stateMutability": "view",
      "type": "function",
      "constant": true
    },
    {
      "inputs": [],
      "name": "owner",
      "outputs": [
        {
          "internalType": "address",
          "name": "",
          "type": "address"
        }
      ],
      "stateMutability": "view",
      "type": "function",
      "constant": true
    },
    {
      "inputs": [],
      "name": "renounceOwnership",
      "outputs": [],
      "stateMutability": "nonpayable",
      "type": "function"
    },
    {
      "inputs": [
        {
          "internalType": "address",
          "name": "newOwner",
          "type": "address"
        }
      ],
      "name": "transferOwnership",
      "outputs": [],
      "stateMutability": "nonpayable",
      "type": "function"
    },
    {
      "inputs": [
        {
          "internalType": "address",
          "name": "",
          "type": "address"
        },
        {
          "internalType": "uint256",
          "name": "",
          "type": "uint256"
        }
      ],
      "name": "userHarvests",
      "outputs": [
        {
          "internalType": "uint256",
          "name": "id",
          "type": "uint256"
        },
        {
          "internalType": "address",
          "name": "owner",
          "type": "address"
        },
        {
          "internalType": "uint256",
          "name": "farmRateId",
          "type": "uint256"
        },
        {
          "internalType": "uint256",
          "name": "startBlock",
          "type": "uint256"
        },
        {
          "internalType": "uint256",
          "name": "endBlock",
          "type": "uint256"
        },
        {
          "internalType": "bool",
          "name": "isClaimed",
          "type": "bool"
        }
      ],
      "stateMutability": "view",
      "type": "function",
      "constant": true
    },
    {
      "inputs": [
        {
          "internalType": "address",
          "name": "",
          "type": "address"
        }
      ],
      "name": "userScores",
      "outputs": [
        {
          "internalType": "uint256",
          "name": "",
          "type": "uint256"
        }
      ],
      "stateMutability": "view",
      "type": "function",
      "constant": true
    },
    {
      "stateMutability": "payable",
      "type": "receive",
      "payable": true
    },
    {
      "inputs": [],
      "name": "getBalance",
      "outputs": [
        {
          "internalType": "uint256",
          "name": "",
          "type": "uint256"
        }
      ],
      "stateMutability": "view",
      "type": "function",
      "constant": true
    },
    {
      "inputs": [
        {
          "internalType": "uint256",
          "name": "_price",
          "type": "uint256"
        },
        {
          "internalType": "uint256",
          "name": "_payout",
          "type": "uint256"
        },
        {
          "internalType": "uint256",
          "name": "_blockCount",
          "type": "uint256"
        }
      ],
      "name": "createFarmRate",
      "outputs": [
        {
          "internalType": "bool",
          "name": "",
          "type": "bool"
        }
      ],
      "stateMutability": "nonpayable",
      "type": "function"
    },
    {
      "inputs": [
        {
          "internalType": "uint256",
          "name": "_id",
          "type": "uint256"
        }
      ],
      "name": "getFarmRate",
      "outputs": [
        {
          "components": [
            {
              "internalType": "uint256",
              "name": "id",
              "type": "uint256"
            },
            {
              "internalType": "address",
              "name": "owner",
              "type": "address"
            },
            {
              "internalType": "uint256",
              "name": "price",
              "type": "uint256"
            },
            {
              "internalType": "uint256",
              "name": "payout",
              "type": "uint256"
            },
            {
              "internalType": "uint256",
              "name": "blockCount",
              "type": "uint256"
            }
          ],
          "internalType": "struct GameFarm.FarmRate",
          "name": "",
          "type": "tuple"
        }
      ],
      "stateMutability": "view",
      "type": "function",
      "constant": true
    },
    {
      "inputs": [],
      "name": "getFarmRates",
      "outputs": [
        {
          "components": [
            {
              "internalType": "uint256",
              "name": "id",
              "type": "uint256"
            },
            {
              "internalType": "address",
              "name": "owner",
              "type": "address"
            },
            {
              "internalType": "uint256",
              "name": "price",
              "type": "uint256"
            },
            {
              "internalType": "uint256",
              "name": "payout",
              "type": "uint256"
            },
            {
              "internalType": "uint256",
              "name": "blockCount",
              "type": "uint256"
            }
          ],
          "internalType": "struct GameFarm.FarmRate[]",
          "name": "",
          "type": "tuple[]"
        }
      ],
      "stateMutability": "view",
      "type": "function",
      "constant": true
    },
    {
      "inputs": [
        {
          "internalType": "uint256",
          "name": "_farmRateId",
          "type": "uint256"
        }
      ],
      "name": "createUserHarvest",
      "outputs": [
        {
          "internalType": "bool",
          "name": "",
          "type": "bool"
        }
      ],
      "stateMutability": "payable",
      "type": "function",
      "payable": true
    },
    {
      "inputs": [],
      "name": "getUserHarvests",
      "outputs": [
        {
          "components": [
            {
              "internalType": "uint256",
              "name": "id",
              "type": "uint256"
            },
            {
              "internalType": "address",
              "name": "owner",
              "type": "address"
            },
            {
              "internalType": "uint256",
              "name": "farmRateId",
              "type": "uint256"
            },
            {
              "internalType": "uint256",
              "name": "startBlock",
              "type": "uint256"
            },
            {
              "internalType": "uint256",
              "name": "endBlock",
              "type": "uint256"
            },
            {
              "internalType": "bool",
              "name": "isClaimed",
              "type": "bool"
            }
          ],
          "internalType": "struct GameFarm.Harvest[]",
          "name": "",
          "type": "tuple[]"
        }
      ],
      "stateMutability": "view",
      "type": "function",
      "constant": true
    },
    {
      "inputs": [
        {
          "internalType": "uint256",
          "name": "_harvestId",
          "type": "uint256"
        }
      ],
      "name": "claimHarvest",
      "outputs": [
        {
          "internalType": "bool",
          "name": "",
          "type": "bool"
        }
      ],
      "stateMutability": "nonpayable",
      "type": "function"
    },
    {
      "inputs": [],
      "name": "getScore",
      "outputs": [
        {
          "internalType": "uint256",
          "name": "",
          "type": "uint256"
        }
      ],
      "stateMutability": "view",
      "type": "function",
      "constant": true
    },
    {
      "inputs": [],
      "name": "withdrawal",
      "outputs": [],
      "stateMutability": "payable",
      "type": "function",
      "payable": true
    }
  ],
  "bytecode": "0x608060405234801561001057600080fd5b5061002d61002261007360201b60201c565b61007b60201b60201c565b33600160006101000a81548173ffffffffffffffffffffffffffffffffffffffff021916908373ffffffffffffffffffffffffffffffffffffffff16021790555061013f565b600033905090565b60008060009054906101000a900473ffffffffffffffffffffffffffffffffffffffff169050816000806101000a81548173ffffffffffffffffffffffffffffffffffffffff021916908373ffffffffffffffffffffffffffffffffffffffff1602179055508173ffffffffffffffffffffffffffffffffffffffff168173ffffffffffffffffffffffffffffffffffffffff167f8be0079c531659141344cd1fd0a4f28419497f9722a3daafe3b4186f6b6457e060405160405180910390a35050565b61197c8061014e6000396000f3fe6080604052600436106100ec5760003560e01c80638da5cb5b1161008a578063d4e9329211610059578063d4e932921461031d578063ddce4cc514610327578063f2fde38b14610369578063f388ead414610392576100f3565b80638da5cb5b1461025f57806392a92be91461028a578063afd82067146102b5578063b84932d2146102e0576100f3565b80631fa96c5b116100c65780631fa96c5b1461018d57806325c22320146101ce5780634e3b08641461020b578063715018a614610248576100f3565b806312065fe0146100f55780631413d4c0146101205780631de5f9291461015d576100f3565b366100f357005b005b34801561010157600080fd5b5061010a6103bd565b6040516101179190611085565b60405180910390f35b34801561012c57600080fd5b5061014760048036038101906101429190611103565b6103c5565b6040516101549190611085565b60405180910390f35b6101776004803603810190610172919061115c565b6103dd565b60405161018491906111a4565b60405180910390f35b34801561019957600080fd5b506101b460048036038101906101af919061115c565b6105d6565b6040516101c59594939291906111ce565b60405180910390f35b3480156101da57600080fd5b506101f560048036038101906101f09190611221565b61063c565b60405161020291906111a4565b60405180910390f35b34801561021757600080fd5b50610232600480360381019061022d919061115c565b6107b5565b60405161023f91906112fa565b60405180910390f35b34801561025457600080fd5b5061025d610875565b005b34801561026b57600080fd5b506102746108fd565b6040516102819190611315565b60405180910390f35b34801561029657600080fd5b5061029f610926565b6040516102ac9190611447565b60405180910390f35b3480156102c157600080fd5b506102ca610a03565b6040516102d79190611085565b60405180910390f35b3480156102ec57600080fd5b506103076004803603810190610302919061115c565b610a4a565b60405161031491906111a4565b60405180910390f35b610325610b73565b005b34801561033357600080fd5b5061034e60048036038101906103499190611469565b610ca8565b604051610360969594939291906114a9565b60405180910390f35b34801561037557600080fd5b50610390600480360381019061038b9190611103565b610d2e565b005b34801561039e57600080fd5b506103a7610e26565b6040516103b49190611643565b60405180910390f35b600047905090565b60056020528060005260406000206000915090505481565b6000806103e9836107b5565b90508060400151341415610432576040517f08c379a0000000000000000000000000000000000000000000000000000000008152600401610429906116c2565b60405180910390fd5b60006040518060c00160405280600460003373ffffffffffffffffffffffffffffffffffffffff1673ffffffffffffffffffffffffffffffffffffffff1681526020019081526020016000208054905081526020013373ffffffffffffffffffffffffffffffffffffffff168152602001836000015181526020014381526020018360800151436104c39190611711565b8152602001600015158152509050600460003373ffffffffffffffffffffffffffffffffffffffff1673ffffffffffffffffffffffffffffffffffffffff1681526020019081526020016000208190806001815401808255809150506001900390600052602060002090600602016000909190919091506000820151816000015560208201518160010160006101000a81548173ffffffffffffffffffffffffffffffffffffffff021916908373ffffffffffffffffffffffffffffffffffffffff16021790555060408201518160020155606082015181600301556080820151816004015560a08201518160050160006101000a81548160ff0219169083151502179055505050600192505050919050565b600381815481106105e657600080fd5b90600052602060002090600502016000915090508060000154908060010160009054906101000a900473ffffffffffffffffffffffffffffffffffffffff16908060020154908060030154908060040154905085565b6000610646610f5b565b73ffffffffffffffffffffffffffffffffffffffff166106646108fd565b73ffffffffffffffffffffffffffffffffffffffff16146106ba576040517f08c379a00000000000000000000000000000000000000000000000000000000081526004016106b1906117b3565b60405180910390fd5b60036040518060a0016040528060025481526020013373ffffffffffffffffffffffffffffffffffffffff1681526020018681526020018581526020018481525090806001815401808255809150506001900390600052602060002090600502016000909190919091506000820151816000015560208201518160010160006101000a81548173ffffffffffffffffffffffffffffffffffffffff021916908373ffffffffffffffffffffffffffffffffffffffff160217905550604082015181600201556060820151816003015560808201518160040155505060016002546107a49190611711565b600281905550600190509392505050565b6107bd611027565b6000600383815481106107d3576107d26117d3565b5b90600052602060002090600502016040518060a0016040529081600082015481526020016001820160009054906101000a900473ffffffffffffffffffffffffffffffffffffffff1673ffffffffffffffffffffffffffffffffffffffff1673ffffffffffffffffffffffffffffffffffffffff1681526020016002820154815260200160038201548152602001600482015481525050905080915050919050565b61087d610f5b565b73ffffffffffffffffffffffffffffffffffffffff1661089b6108fd565b73ffffffffffffffffffffffffffffffffffffffff16146108f1576040517f08c379a00000000000000000000000000000000000000000000000000000000081526004016108e8906117b3565b60405180910390fd5b6108fb6000610f63565b565b60008060009054906101000a900473ffffffffffffffffffffffffffffffffffffffff16905090565b60606003805480602002602001604051908101604052809291908181526020016000905b828210156109fa57838290600052602060002090600502016040518060a0016040529081600082015481526020016001820160009054906101000a900473ffffffffffffffffffffffffffffffffffffffff1673ffffffffffffffffffffffffffffffffffffffff1673ffffffffffffffffffffffffffffffffffffffff16815260200160028201548152602001600382015481526020016004820154815250508152602001906001019061094a565b50505050905090565b6000600560003373ffffffffffffffffffffffffffffffffffffffff1673ffffffffffffffffffffffffffffffffffffffff16815260200190815260200160002054905090565b600080600460003373ffffffffffffffffffffffffffffffffffffffff1673ffffffffffffffffffffffffffffffffffffffff1681526020019081526020016000208381548110610a9e57610a9d6117d3565b5b90600052602060002090600602019050438160040154108015610ad65750600015158160050160009054906101000a900460ff161515145b15610b685760018160050160006101000a81548160ff021916908315150217905550610b0581600201546107b5565b60600151600560003373ffffffffffffffffffffffffffffffffffffffff1673ffffffffffffffffffffffffffffffffffffffff1681526020019081526020016000206000828254610b579190611711565b925050819055506001915050610b6e565b60009150505b919050565b610b7b610f5b565b73ffffffffffffffffffffffffffffffffffffffff16610b996108fd565b73ffffffffffffffffffffffffffffffffffffffff1614610bef576040517f08c379a0000000000000000000000000000000000000000000000000000000008152600401610be6906117b3565b60405180910390fd5b6000803373ffffffffffffffffffffffffffffffffffffffff16610c116103bd565b604051610c1d90611833565b60006040518083038185875af1925050503d8060008114610c5a576040519150601f19603f3d011682016040523d82523d6000602084013e610c5f565b606091505b509150915081610ca4576040517f08c379a0000000000000000000000000000000000000000000000000000000008152600401610c9b90611894565b60405180910390fd5b5050565b60046020528160005260406000208181548110610cc457600080fd5b9060005260206000209060060201600091509150508060000154908060010160009054906101000a900473ffffffffffffffffffffffffffffffffffffffff16908060020154908060030154908060040154908060050160009054906101000a900460ff16905086565b610d36610f5b565b73ffffffffffffffffffffffffffffffffffffffff16610d546108fd565b73ffffffffffffffffffffffffffffffffffffffff1614610daa576040517f08c379a0000000000000000000000000000000000000000000000000000000008152600401610da1906117b3565b60405180910390fd5b600073ffffffffffffffffffffffffffffffffffffffff168173ffffffffffffffffffffffffffffffffffffffff161415610e1a576040517f08c379a0000000000000000000000000000000000000000000000000000000008152600401610e1190611926565b60405180910390fd5b610e2381610f63565b50565b6060600460003373ffffffffffffffffffffffffffffffffffffffff1673ffffffffffffffffffffffffffffffffffffffff168152602001908152602001600020805480602002602001604051908101604052809291908181526020016000905b82821015610f5257838290600052602060002090600602016040518060c0016040529081600082015481526020016001820160009054906101000a900473ffffffffffffffffffffffffffffffffffffffff1673ffffffffffffffffffffffffffffffffffffffff1673ffffffffffffffffffffffffffffffffffffffff1681526020016002820154815260200160038201548152602001600482015481526020016005820160009054906101000a900460ff16151515158152505081526020019060010190610e87565b50505050905090565b600033905090565b60008060009054906101000a900473ffffffffffffffffffffffffffffffffffffffff169050816000806101000a81548173ffffffffffffffffffffffffffffffffffffffff021916908373ffffffffffffffffffffffffffffffffffffffff1602179055508173ffffffffffffffffffffffffffffffffffffffff168173ffffffffffffffffffffffffffffffffffffffff167f8be0079c531659141344cd1fd0a4f28419497f9722a3daafe3b4186f6b6457e060405160405180910390a35050565b6040518060a0016040528060008152602001600073ffffffffffffffffffffffffffffffffffffffff1681526020016000815260200160008152602001600081525090565b6000819050919050565b61107f8161106c565b82525050565b600060208201905061109a6000830184611076565b92915050565b600080fd5b600073ffffffffffffffffffffffffffffffffffffffff82169050919050565b60006110d0826110a5565b9050919050565b6110e0816110c5565b81146110eb57600080fd5b50565b6000813590506110fd816110d7565b92915050565b600060208284031215611119576111186110a0565b5b6000611127848285016110ee565b91505092915050565b6111398161106c565b811461114457600080fd5b50565b60008135905061115681611130565b92915050565b600060208284031215611172576111716110a0565b5b600061118084828501611147565b91505092915050565b60008115159050919050565b61119e81611189565b82525050565b60006020820190506111b96000830184611195565b92915050565b6111c8816110c5565b82525050565b600060a0820190506111e36000830188611076565b6111f060208301876111bf565b6111fd6040830186611076565b61120a6060830185611076565b6112176080830184611076565b9695505050505050565b60008060006060848603121561123a576112396110a0565b5b600061124886828701611147565b935050602061125986828701611147565b925050604061126a86828701611147565b9150509250925092565b61127d8161106c565b82525050565b61128c816110c5565b82525050565b60a0820160008201516112a86000850182611274565b5060208201516112bb6020850182611283565b5060408201516112ce6040850182611274565b5060608201516112e16060850182611274565b5060808201516112f46080850182611274565b50505050565b600060a08201905061130f6000830184611292565b92915050565b600060208201905061132a60008301846111bf565b92915050565b600081519050919050565b600082825260208201905092915050565b6000819050602082019050919050565b60a0820160008201516113726000850182611274565b5060208201516113856020850182611283565b5060408201516113986040850182611274565b5060608201516113ab6060850182611274565b5060808201516113be6080850182611274565b50505050565b60006113d0838361135c565b60a08301905092915050565b6000602082019050919050565b60006113f482611330565b6113fe818561133b565b93506114098361134c565b8060005b8381101561143a57815161142188826113c4565b975061142c836113dc565b92505060018101905061140d565b5085935050505092915050565b6000602082019050818103600083015261146181846113e9565b905092915050565b600080604083850312156114805761147f6110a0565b5b600061148e858286016110ee565b925050602061149f85828601611147565b9150509250929050565b600060c0820190506114be6000830189611076565b6114cb60208301886111bf565b6114d86040830187611076565b6114e56060830186611076565b6114f26080830185611076565b6114ff60a0830184611195565b979650505050505050565b600081519050919050565b600082825260208201905092915050565b6000819050602082019050919050565b61153f81611189565b82525050565b60c08201600082015161155b6000850182611274565b50602082015161156e6020850182611283565b5060408201516115816040850182611274565b5060608201516115946060850182611274565b5060808201516115a76080850182611274565b5060a08201516115ba60a0850182611536565b50505050565b60006115cc8383611545565b60c08301905092915050565b6000602082019050919050565b60006115f08261150a565b6115fa8185611515565b935061160583611526565b8060005b8381101561163657815161161d88826115c0565b9750611628836115d8565b925050600181019050611609565b5085935050505092915050565b6000602082019050818103600083015261165d81846115e5565b905092915050565b600082825260208201905092915050565b7f4d7573742073656e6420657861637420707269636520696e2045544800000000600082015250565b60006116ac601c83611665565b91506116b782611676565b602082019050919050565b600060208201905081810360008301526116db8161169f565b9050919050565b7f4e487b7100000000000000000000000000000000000000000000000000000000600052601160045260246000fd5b600061171c8261106c565b91506117278361106c565b9250827fffffffffffffffffffffffffffffffffffffffffffffffffffffffffffffffff0382111561175c5761175b6116e2565b5b828201905092915050565b7f4f776e61626c653a2063616c6c6572206973206e6f7420746865206f776e6572600082015250565b600061179d602083611665565b91506117a882611767565b602082019050919050565b600060208201905081810360008301526117cc81611790565b9050919050565b7f4e487b7100000000000000000000000000000000000000000000000000000000600052603260045260246000fd5b600081905092915050565b50565b600061181d600083611802565b91506118288261180d565b600082019050919050565b600061183e82611810565b9150819050919050565b7f4661696c656420746f2073656e64204574686572000000000000000000000000600082015250565b600061187e601483611665565b915061188982611848565b602082019050919050565b600060208201905081810360008301526118ad81611871565b9050919050565b7f4f776e61626c653a206e6577206f776e657220697320746865207a65726f206160008201527f6464726573730000000000000000000000000000000000000000000000000000602082015250565b6000611910602683611665565b915061191b826118b4565b604082019050919050565b6000602082019050818103600083015261193f81611903565b905091905056fea26469706673582212206daf08c6e4f7b1896244cafef94fd10595d054311fe12ce248e6ec4591ae929664736f6c63430008090033",
  "immutableReferences": {},
  "source": "// SPDX-License-Identifier: MIT\npragma solidity ^0.8.2;\n\n/// @notice Ownable Inheritance and Access Control design pattern import\nimport \"@openzeppelin/contracts/access/Ownable.sol\";\n\n/// @title A simple game-like farming mechanic\n/// @author Joseph Annuzzi Jr\n/// @notice You can use this contract for only the most basic game-like farming\n/// @dev All function calls are currently implemented without side effects\n/// @custom:experimental This is an experimental contract\ncontract GameFarm is Ownable {\n\n    /// @notice FarmRate struct\n    /// @param id The FarmRate id to keep track of different rates\n    /// @param owner The owner of the contract is only allowed to create\n    /// @param price The price in ETH this farm rate costs to farm\n    /// @param payout The payout in points that get added to a users score in the game\n    /// @param blockCount The number of blocks it takes to harvest this farm rate\n    struct FarmRate {\n        uint256 id;\n        address owner;\n        uint256 price;\n        uint256 payout;\n        uint256 blockCount;\n    }\n\n    /// @notice Harvest struct\n    /// @param id The Harvest id to keep track of different harvests of a user\n    /// @param owner The owner of the harvest who created it\n    /// @param farmRateId The ID of the farmRate this harvest is harvesting\n    /// @param startBlock The startBlock of the harvest when it was created\n    /// @param endBlock The endBlock of the harvest from when it was created\n    /// @param isClaimed Boolean noting if the harvest reward has been claimed\n    struct Harvest {\n        uint256 id;\n        address owner;\n        uint256 farmRateId;\n        uint256 startBlock;\n        uint256 endBlock;\n        bool isClaimed;\n    }\n\n    address private _owner;\n    uint256 _farmRateCount;\n\n    /// @notice Array of FarmRate[] holding the games farm rates    \n    FarmRate[] public farmRates;\n    \n    /// @notice User Harvest mapping and User Scores mapping\n    mapping(address => Harvest[]) public userHarvests;\n    mapping(address => uint256) public userScores;\n\n    /// @notice Makes sure on deployment that the deployer is _owner\n    constructor() {\n        _owner = msg.sender;\n    }\n\n    /// @notice Receive Ether\n    receive() external payable {}\n\n    /// @notice Fallback function\n    fallback() external payable {}\n\n    /// @notice Get the ETH balance of this contracts address rounded up, for live trees\n    /// @return The ETH balance of this contracts address\n    function getBalance() public view returns (uint256) {\n        return address(this).balance;\n    }\n\n    /// @notice Creates a new FarmRate\n    /// @dev and adds it to an array of FarmRate[] then increments _farmRateCount\n    /// @param _price The price in ETH this farm rate costs to farm\n    /// @param _payout The payout in points that get added to a users score in the game\n    /// @param _blockCount The number of blocks it takes to harvest this farm rate\n    /// @return Boolean as true if the FarmRate has been created\n    function createFarmRate(uint256 _price, uint256 _payout, uint256 _blockCount) public onlyOwner returns(bool) {\n        farmRates.push(FarmRate(_farmRateCount, msg.sender, _price, _payout, _blockCount));\n        _farmRateCount = _farmRateCount + 1;\n        return true;\n    }\n\n    /// @notice Gets a particular farm rate\n    /// @param _id of the farm rate to get\n    /// @return The particular farmRate\n    function getFarmRate(uint256 _id) public view returns(FarmRate memory) {\n        FarmRate memory farmRate = farmRates[_id];\n        return farmRate;\n    }\n\n    /// @notice Gets all FarmRates of the game\n    /// @return An array of FarmRate[]\n    function getFarmRates() public view returns(FarmRate[] memory) {\n        return farmRates;\n    }\n\n    /// @notice Creates a Harvest for the User\n    /// @dev Payable function requires user to pay in ETH the farm rate price to create Harvest\n    /// @param _farmRateId Accepts the farm rate ID for the Harvest\n    /// @return Boolean as true if the harvest was created for the user\n    function createUserHarvest(uint256 _farmRateId) public payable returns(bool) {\n        FarmRate memory farmRate = getFarmRate(_farmRateId);\n        require(msg.value != farmRate.price, \"Must send exact price in ETH\");\n        Harvest memory harvest = Harvest(userHarvests[msg.sender].length, msg.sender, farmRate.id, block.number, block.number + farmRate.blockCount, false);\n        userHarvests[msg.sender].push(harvest);\n        return true;\n    }\n    \n    /// @notice Gets the harvests for a user when an address matches\n    /// @return Harvest[] for the addres sender of userHarvests\n    function getUserHarvests() public view returns(Harvest[] memory) {\n        return userHarvests[msg.sender];\n    }\n\n    /// @notice Claim the harvest score for a user when a claimable harvest is ready\n    /// @param _harvestId Finds the harvest by ID\n    /// @return Boolean if the harvest was claimed and score updated or false if not\n    function claimHarvest(uint256 _harvestId) public returns(bool) {\n        Harvest storage harvest = userHarvests[msg.sender][_harvestId];\n        if(harvest.endBlock < block.number && harvest.isClaimed == false) {\n            harvest.isClaimed = true;\n            userScores[msg.sender] += getFarmRate(harvest.farmRateId).payout;\n            return true;\n        }\n        return false;\n    }\n\n    /// @notice Gets the score\n    /// @return The score of the msg.sender\n    function getScore() public view returns(uint256) {\n        return userScores[msg.sender];\n    }\n\n    /// @notice Allows the contract owner to withdrawal the ETH earned by the contract\n    /// @dev Access control protects this payable function to the contract owner\n    /// @dev Call returns a success or failure\n    function withdrawal() public payable onlyOwner {\n        (bool sent, bytes memory data) = (msg.sender).call{value: getBalance()}(\"\");\n        require(sent, \"Failed to send Ether\");\n    }\n}\n",
  "sourcePath": "/home/guru/Documents/final-project/blockchain-developer-bootcamp-final-project/contracts/GameFarm.sol",
  "compiler": {
    "name": "solc",
    "version": "0.8.9+commit.e5eed63a.Emscripten.clang"
  },
  "schemaVersion": "3.4.3",
  "updatedAt": "2021-11-30T11:32:19.091Z",
  "networkType": "ethereum",
  "devdoc": {
    "author": "Joseph Annuzzi Jr",
    "custom:experimental": "This is an experimental contract",
    "details": "All function calls are currently implemented without side effects",
    "kind": "dev",
    "methods": {
      "claimHarvest(uint256)": {
        "params": {
          "_harvestId": "Finds the harvest by ID"
        },
        "returns": {
          "_0": "Boolean if the harvest was claimed and score updated or false if not"
        }
      },
      "createFarmRate(uint256,uint256,uint256)": {
        "details": "and adds it to an array of FarmRate[] then increments _farmRateCount",
        "params": {
          "_blockCount": "The number of blocks it takes to harvest this farm rate",
          "_payout": "The payout in points that get added to a users score in the game",
          "_price": "The price in ETH this farm rate costs to farm"
        },
        "returns": {
          "_0": "Boolean as true if the FarmRate has been created"
        }
      },
      "createUserHarvest(uint256)": {
        "details": "Payable function requires user to pay in ETH the farm rate price to create Harvest",
        "params": {
          "_farmRateId": "Accepts the farm rate ID for the Harvest"
        },
        "returns": {
          "_0": "Boolean as true if the harvest was created for the user"
        }
      },
      "getBalance()": {
        "returns": {
          "_0": "The ETH balance of this contracts address"
        }
      },
      "getFarmRate(uint256)": {
        "params": {
          "_id": "of the farm rate to get"
        },
        "returns": {
          "_0": "The particular farmRate"
        }
      },
      "getFarmRates()": {
        "returns": {
          "_0": "An array of FarmRate[]"
        }
      },
      "getScore()": {
        "returns": {
          "_0": "The score of the msg.sender"
        }
      },
      "getUserHarvests()": {
        "returns": {
          "_0": "Harvest[] for the addres sender of userHarvests"
        }
      },
      "owner()": {
        "details": "Returns the address of the current owner."
      },
      "renounceOwnership()": {
        "details": "Leaves the contract without owner. It will not be possible to call `onlyOwner` functions anymore. Can only be called by the current owner. NOTE: Renouncing ownership will leave the contract without an owner, thereby removing any functionality that is only available to the owner."
      },
      "transferOwnership(address)": {
        "details": "Transfers ownership of the contract to a new account (`newOwner`). Can only be called by the current owner."
      },
      "withdrawal()": {
        "details": "Access control protects this payable function to the contract ownerCall returns a success or failure"
      }
    },
    "title": "A simple game-like farming mechanic",
    "version": 1
  },
  "userdoc": {
    "kind": "user",
    "methods": {
      "claimHarvest(uint256)": {
        "notice": "Claim the harvest score for a user when a claimable harvest is ready"
      },
      "constructor": {
        "notice": "Makes sure on deployment that the deployer is _owner"
      },
      "createFarmRate(uint256,uint256,uint256)": {
        "notice": "Creates a new FarmRate"
      },
      "createUserHarvest(uint256)": {
        "notice": "Creates a Harvest for the User"
      },
      "farmRates(uint256)": {
        "notice": "Array of FarmRate[] holding the games farm rates    "
      },
      "getBalance()": {
        "notice": "Get the ETH balance of this contracts address rounded up, for live trees"
      },
      "getFarmRate(uint256)": {
        "notice": "Gets a particular farm rate"
      },
      "getFarmRates()": {
        "notice": "Gets all FarmRates of the game"
      },
      "getScore()": {
        "notice": "Gets the score"
      },
      "getUserHarvests()": {
        "notice": "Gets the harvests for a user when an address matches"
      },
      "userHarvests(address,uint256)": {
        "notice": "User Harvest mapping and User Scores mapping"
      },
      "withdrawal()": {
        "notice": "Allows the contract owner to withdrawal the ETH earned by the contract"
      }
    },
    "notice": "You can use this contract for only the most basic game-like farming",
    "version": 1
  }
}